:04000000C1EF3FF01D
:107F82000001CDEF3FF0000E0F015B6F000E926E0D
:107F9200000E5C6F93881200C4EC3FF0898E899CBE
:107FA200899A8998040E026ECF0E016E020EE82E97
:107FB200FED7012EFCD7022EFAD7899E898C899A88
:107FC2008998020E026E450E016EAA0EE82EFED7A9
:107FD200012EFCD7022EFAD7899E899C898A89981C
:107FE200040E026ECF0E016E020EE82EFED7012E97
:0E7FF200FCD7022EFAD7CFEF3FF000EF00F0E1
:020000040020DA
:08000000FFFFFFFFFFFFFFFF00
:020000040030CA
:0E00000002285F3CFFD185FF0FC00FE00F40CC
:00000001FF
