:04000000C1EF3FF01D
:107F82000001E0EF3FF0480ED36E000E0F015B6F71
:107F9200000E926E000E5C6F938812009E0ED76EDA
:107FA200580ED66EF294830ED56EF2A4DBEF3FF03C
:107FB200DDEF3FF0D6EF3FF0000ED56E1200C4ECBD
:107FC2003FF0898E899C899A8998CFEC3FF0CFEC5B
:107FD2003FF0CFEC3FF0899E898C899A8998CFEC4B
:107FE2003FF0899E899C898A8998CFEC3FF0CFEC3B
:0E7FF2003FF0CFEC3FF0E2EF3FF000EF00F089
:020000040020DA
:08000000FFFFFFFFFFFFFFFF00
:020000040030CA
:0E00000002285F3CFFD185FF0FC00FE00F40CC
:00000001FF
